:100000000C9466030C9483030C9483030C94830375
:100010000C9483030C9483030C9483030C94830348
:100020000C9483030C9483030C9477220C9449233F
:100030000C94DF1A0C9483030C9483030C948303B5
:100040000C9483030C9483030C9483030C94830318
:100050000C9483030C94471B0C9483030C9483032C
:100060000C9483030C9483030C9483030C948303F8
:100070000C9483030C9483030C9483030C948303E8
:100080000C9483030C9483030C9483030C948303D8
:100090000C9483030C9483030C9483030C948303C8
:1000A0000C9483030C9483030C948303DB03DE031F
:1000B000E103E403E703EA03ED0309070E0718076A
:1000C0000C07110716071407720874087F087608D2
:1000D00078087A087C087E088108830885089008DB
:1000E000870889088B088D088F0892080B100B1061
:1000F0003D103D1074109410FD115B12D6105B1270
:1001000083118311F4115B125B125512901190113F
:1001100090119011901190119011901190119011D7
:10012000901190119011901190119011A111AE1198
:10013000B511BC11C611E612E612F812F812EF1250
:10014000F812F812F812E612E612F412F812F81287
:10015000F412B623DD23CF24DD23CF2429244C241D
:10016000CF24A224B1246572676F646F785F657ACB
:100170002F313634653433623638303934353532E0
:100180006537323264204020302E362E3237332D00
:1001900031362D676234653462652D646972747915
:1001A000000000F0A129002B002A00E100354100E9
:1001B000001E00140004621D61AB0025061F001A1A
:1001C0000016611B0001004C0020000800076406B7
:1001D0000050002C0021001500096819004F00256F
:1001E00004220017000A0005000000350064002EFC
:1001F0001200000608000025020C04300400000371
:10020000530000260223001C000B001100000035E3
:1002100002240018000D7810005200260425000C5E
:10022000000E74360051002842260012000F71376C
:1002300000A80031412700130033723800AA0026BD
:10024000062D002F003468AE00A90000002900012F
:100250000001000100010000003A001E02200222FD
:1002600002010001003B001F0221022302010001E4
:10027000003C002F0226022F00010001003D00304B
:100280000227023000010001003E00310235003536
:100290000200000100010001000000010000000157
:1002A000000100010000000100000001003F0052B9
:1002B0000051002402000001004000240021001E23
:1002C00000010001004100250022001F003700014D
:1002D00000420026002300200027000100430025E3
:1002E00002570031002E00010044004500010001CA
:1002F00000010000000100010001000100010000F8
:100300000001000100010001000100F60001001AD7
:1003100007F20001000100F5000100F000F100FB10
:10032000000100F40001001507F300FC00010001CA
:10033000000100F900FA00010000000100010001C5
:1003400000000001000000010001000100000001A8
:100350000000000100010001000100010000000197
:1003600000010001005000010001000100010052E5
:10037000005100010001000100010001004F0001D7
:100380000001000100010001000100010001000165
:100390000001000100010001000100000029002B04
:1003A00000E100E000010000001E00140004001D38
:1003B00000010001001F001A0016001B00010001CF
:1003C00000200008000700060001002C0021001595
:1003D000000900190001000100220017000A0005B1
:1003E00000000001002300010000000100000001E6
:1003F00000010001000000010000000100010001F7
:1004000000010001000000010001000100010001E5
:1004100000010001000100010001000100010001D4
:1004200000010001000100010001000100010001C4
:1004300000010001000100010001000100010001B4
:10044000000100000000000000000000002A2B282E
:10045000000000000000000000000000000000009C
:1004600029000000002C1E342021222434262725B8
:100470002E362D3738271E1F2021222324252633F0
:1004800033362E37381F0405060708090A0B0C0DF2
:100490000E0F101112131415161718191A1B1C1D04
:1004A0002F3130232D350405060708090A0B0C0DE2
:1004B0000E0F101112131415161718191A1B1C1DE4
:1004C0002F3130354C00000000000000000000001B
:1004D000000000000000000000000000000000001C
:1004E0000000000000000101010101010001010103
:1004F00001000000000000000000000000000001FA
:1005000000010001010101010101010101010101DD
:1005100001010101010101010101010101010101CB
:1005200000000001010000000000000000000000C9
:1005300000000000000000000000000000000000BB
:1005400001010101000403300000001603450072A0
:100550000067006F0044006F007800200045005ADB
:1005600000000016034500720067006F0044006F32
:10057000007800200045005A000000040309040927
:10058000023B00020100A0FA09040000010301017E
:100590000009211101000122400007058103080024
:1005A0000A090401000103000000092111010001F2
:1005B00022C0000705820320000A1201100100007A
:1005C0000008EDFE07130100010203010501090205
:1005D000A10185020901A1000509190129051500DC
:1005E00025019505750181029501750381010501BC
:1005F000093009311581257F950275088106093872
:100600001581257F950175088106050C0A380215AC
:1006100081257F950175088106C0C005010980A16B
:100620000185031601002603001A81002A83007544
:100630001095018100C0050C0901A1018504160176
:1006400000269C021A01002A9C0275109501810067
:10065000C005010906A1018505050719E029E7156F
:1006600000250195087501810205081901290595E4
:10067000057501910295017503910105071900297E
:10068000EF1500250195F075018102C005010906ED
:10069000A101050719E029E7150025019508750155
:1006A0008102950175088101050819012905950543
:1006B000750191029501750391010507190029FF44
:1006C000150026FF00950675088100C011241FBE85
:1006D000CFEFDAE0DEBFCDBF11E0A0E0B1E0EAEE9F
:1006E000FAE402C005900D92AC3BB107D9F723E0C4
:1006F000ACEBB1E001C01D92A134B207E1F70E945A
:100700009B1F0C9473250C94000080B38C7080BBED
:1007100081B3836F81BB089584B1807F84B985B133
:10072000807F85B98AB1837F8AB98BB1837F8BB98A
:100730003E9846980895CF93E82F873090F58091A2
:10074000000190910101892B09F049C0CE2F64E688
:1007500070E080E40E941C059093010180930001E9
:10076000892BD1F464E670E082E10E9473059093D6
:10077000010180930001892B79F481E090E001C0B0
:10078000880FCA95EAF764E670E080950E947305C9
:10079000909301018093000184E690E0CF910C9446
:1007A000C80590E0FC013797E730F105C0F4EA5A3C
:1007B000FF4F0C941725209A289811C0219A299848
:1007C0000EC0229A2A980BC0239A2B9808C0529ADE
:1007D0005A9805C0539A5B9802C03E9A4698CF91AA
:1007E0000895089508950C94F203CF93DF930E9427
:1007F0005A0690E090930101809300010E948C03BF
:100800000E948503A1E1B2E02DEB31E0EFE1F2E0DF
:100810004EE04E0F11921D9280E090E0E901C80F6A
:10082000D91F1882019686309105C1F72A5F3F4F84
:100830004E13F0CFDF91CF910C9481070E945A069E
:1008400090E090930101809300010E948C030E942C
:100850008503EFE1F2E08EE08E0F11928E13FDCF53
:100860000895CF93DF93E62FF0E0EF5EFD4F4081D8
:100870004827808386E0689FF0011124E354FE4FEF
:1008800020E030E080E061E070E050E0AAE0B22FCC
:100890009081992319F09150908307C0EB01022EAB
:1008A00001C0CC0F0A94EAF78C2BEA0102C0D5955F
:1008B000C795BA95E2F7C0FDA0832F5F3F4F3196F1
:1008C0002630310521F7DF91CF910895CF93DF9343
:1008D000D82F873008F040C080910001909101012D
:1008E000892B09F042C064E670E080E40E941C0598
:1008F0009093010180930001892B11F0C0E027C083
:1009000064E670E083E10E94730590930101809397
:100910000001892B99F764E670E081E40E941C05D0
:100920009093010180930001892B41F784E690E0C8
:100930000E94A30597FF05C09093010180930001D9
:10094000DDCFC82FC095109201011092000184E6FE
:1009500090E00E94C8050AC09FB1CFB1C07FC69584
:10096000C6959370C92BC09501C0C0E06D2F8C2F28
:100970000E943104282F2095ED2FF0E0E15EFD4F1D
:10098000908192238C23892BDF91CF910895EF9250
:10099000FF920F931F93CF93DF938091000190916B
:1009A0000101892B91F08091BC018F5F8093BC0184
:1009B00081110BC00E945A0690E090930101809330
:1009C0000001892B11F40E94EC058FE1E82E82E0F2
:1009D000F82E06E212E0C0E08C2F0E949B03D7E0C5
:1009E000DC0F8D2F0E949B038C2F0E946604F70161
:1009F00081937F018D2F0E946604F80181938F01FE
:100A00000E948C03CF5FC73039F70E948B0781E0CB
:100A1000DF91CF911F910F91FF90EF900895E82FF4
:100A2000F0E0E15EFD4F8081089508951092B900D5
:100A30008CE08093B8000895EF92FF920F931F937C
:100A4000CF93DF93182FEB011092BC0084EA8093C0
:100A5000BC000E94111B7C019091BC0097FD0EC050
:100A6000CF3F8FEFD807C1F30E94111B8E199F094A
:100A70008C179D0788F38EEF9FEF2EC09091B900E1
:100A8000987F983041F09091B900987F903119F09B
:100A90008FEF9FEF21C01093BB0084E88093BC00D0
:100AA0000E94111B8C019091BC0097FD0CC0CF3FA0
:100AB0008FEFD807C1F30E94111B801B910B8C177D
:100AC0009D0788F3D8CF8091B900887F883111F0D5
:100AD0008034F1F680E090E0DF91CF911F910F918B
:100AE000FF90EF9008950F931F93CF93DF93EB0147
:100AF0008093BB0084E88093BC000E94111B8C0192
:100B00009091BC0097FD0EC0CF3F8FEFD807C1F387
:100B10000E94111B801B910B8C179D0788F38EEF91
:100B20009FEF0CC02091B900287F81E090E028322F
:100B300011F480E090E0919581959109DF91CF913A
:100B40001F910F9108950F931F93CF93DF93EC01A3
:100B500084E88093BC000E94111B8C019091BC0022
:100B600097FD0EC0CF3F8FEFD807C1F30E94111B36
:100B7000801B910B8C179D0788F38EEF9FEF03C0AE
:100B80008091BB0090E0DF91CF911F910F9108956C
:100B90000F931F93CF93DF93EC0184E98093BC0004
:100BA0000E94111B8C019091BC0094FF0EC0CF3F9E
:100BB0008FEFD807C1F30E94111B801B910B8C177C
:100BC0009D0788F38EEF9FEF02C080E090E0DF91F9
:100BD000CF911F910F91089556985E9825982D9862
:100BE00026982E9827982F988FEF90E09093890061
:100BF0008093880090938B0080938A0090938D005F
:100C000080938C00259A2D9A2FEF80E792E0215057
:100C100080409040E1F700C00000269A2E9A2FEF06
:100C200080E792E0215080409040E1F700C0000052
:100C3000279A2F9A2FEF80E792E021508040904032
:100C4000E1F700C0000025982D982FEF80E792E093
:100C5000215080409040E1F700C0000026982E9877
:100C60002FEF80E792E0215080409040E1F700C0F4
:100C7000000027982F9856985E9825982D982698CA
:100C80002E9827982F98089589EA8093800089E00C
:100C90008093810024982C983F988AB18F7C8AB9E0
:100CA0006E98479A8BB180638BB9769A0E94EC0557
:100CB0000C94F10380E290E0909301018093000195
:100CC00080912D0281110EC00E94160581E0809353
:100CD0002D022FEF83ED90E3215080409040E1F70B
:100CE00000C0000064E670E080E40E941C05909360
:100CF000010180930001892B09F050C064E670E087
:100D000080E00E9473059093010180930001892B7C
:100D100009F044C064E670E080E00E94730590939F
:100D2000010180930001892BC9F564E670E08FE32F
:100D30000E9473059093010180930001892B71F546
:100D400084E690E00E94C80564E670E080E40E94BA
:100D50001C059093010180930001892BF9F464E64E
:100D600070E08CE00E947305909301018093000174
:100D7000892BA1F464E670E080E00E9473059093F3
:100D8000010180930001892B49F464E670E08FE350
:100D90000E947305909301018093000184E690E026
:100DA0000E94C805809100010895611108C0FC01EE
:100DB0008281882321F086E691E00E947E0780E010
:100DC00090E00895863E9C4541F4FB018281882392
:100DD00029F00E94FD1980E0089581E00895CF92E6
:100DE000DF92EF92FF926B017C010E943F195698AF
:100DF0005E9825982D9826982E9827982F9890E001
:100E0000FC013197E730F105A8F4E35AFF4F0C9449
:100E10001725259A2D9A0EC0259A2D9A269A2E9A34
:100E200009C0259A2D9A04C0259A2D9A269A2E9AA1
:100E3000279A2F9AC701B601FF90EF90DF90CF90CD
:100E4000089581E008950C94E206CF93282F30E0B6
:100E5000F901EB5BFB4FC491F901EB53FB4F24917C
:100E6000222359F081EE0E943B0E8C2F0E943B0EF4
:100E70008C2F0E94590F81EE04C08C2F0E943B0ED4
:100E80008C2FCF910C94590F0F931F93CF93DF9317
:100E9000EC01062FFE018491882359F19E012F5FFA
:100EA0003F4F813041F4E901F9011491812F0E94F3
:100EB0003B0E812F0DC0823031F4E901F90184919C
:100EC0000E943B0E0AC0833031F4E901F90184919C
:100ED0000E94590F02C00E9425072196802F882367
:100EE000C9F2EFE9FFE03197F1F700C0000081504F
:100EF000F6CFDF91CF911F910F91089560E00C9490
:100F000044070E948F19811102C00E94FD190E949E
:100F1000DF0B0C9444060C94F303282F2F7041F040
:100F2000822F90E02A3010F44D9608950697089588
:100F300087E290E0089508950C949B070C949C0719
:100F400008950E94D6120E94A0072FEF84E39CE030
:100F5000215080409040E1F700C000000C946D1BD0
:100F6000FF920F931F93CF93DF938C01FC01C081FD
:100F7000D18180915902811113C08281882349F067
:100F8000CE010E940C18F82E682FCE010E94AF17D8
:100F900004C0CE010E94DF17F82EBE018F2D04C0C1
:100FA000CE010E940C18BE010E944909EC01B80153
:100FB0000E942307882309F464C1B801CE010E946E
:100FC0005A0C882309F45DC1C63DFCE5DF0761F5D5
:100FD000F8018281882351F0109233020E94111B84
:100FE0009093300280932F0282E03BC00E948C18C5
:100FF00085FF05C081E080933302809334028091A5
:10100000330281110FC080912F02909130020E9413
:101010001D1B843B910530F486E20E943B0E86E264
:101020000E94590F82E02FC0C73D8CE5D80770F1B0
:10103000CB3D8CE5D80709F4D6C008F0DBC0C73D2E
:10104000FCE5DF0709F0F4C0F8018281882361F034
:10105000109234020E94111B90933202809331024D
:1010600080E20E94C90F0DC10E948C1881FF05C04B
:1010700081E080933302809334028091340288238C
:1010800009F4C5C080E20E94D00FFBC0C531ECE579
:10109000DE0708F07EC0C230FCE5DF0708F452C06E
:1010A000F8018281882309F459C00E948F198111A7
:1010B00002C00E94FD190E94A21990E09093330390
:1010C00080933203FE01E350FC45E231F10530F438
:1010D000EC59FF4F809132030C9417258091320315
:1010E000816027C0826025C0846023C0806121C0E8
:1010F00080621FC080641DC080681BC084608860DF
:1011000018C08E7F16C08D7F14C08B7F12C08F7E5B
:1011100010C08F7D0EC08F7B0CC08F770AC08B7F75
:10112000877F07C087FB222720F991E0922790FB59
:1011300087F980933203809132030E94A6190E949E
:10114000D6129FC0C1158CE5D80781F0C130DC45AF
:10115000A9F081E08093330280933402C801DF91CB
:10116000CF911F910F91FF900C942107F80182817C
:10117000882309F486C00E94A10783C0F8018281F8
:10118000882309F47EC08091F80281608093F80280
:1011900078C0C631DC45E9F60E948C18282FF8018A
:1011A00082814091020150910301882379F02A7ACB
:1011B00091E009F490E090932E02911102C069E24F
:1011C00001C065E3CA010E94641A0AC080912E0220
:1011D000811102C069E201C065E3CA010E946F1A71
:1011E0000E94DB184EC0F8018281882309F449C0AF
:1011F00080E00AC0CC3DECE5DE07D1F5F801828144
:10120000882309F43EC082E00E943A203AC08091CF
:101210003102909132020E941D1B843B910508F01F
:1012200031CF87E20E943B0E87E20E94590F2ACFFE
:10123000C83DDC4509F08DCFF8018281811108CFCE
:101240008091340281111ECF80913102909132023F
:101250000E941D1B843B910508F014CF80E20E9480
:10126000D00F88E20E943B0E88E20E94590F09C00D
:10127000CD3DDC4509F06DCFF801828181110E94DE
:10128000FD1980E0DF91CF911F910F91FF9008959C
:10129000089596E0799FF001112494E5899FE00D6F
:1012A000F11D1124E60FF11DEE0FFF1FEB55FE4F50
:1012B000859194910895880F991FFC01EF55FE4F79
:1012C000859194910895CF93DF930E9449090E94DC
:1012D000280BEC01811520E59207F0F5811530E42B
:1012E000930708F029C1883E910500F5803E9105DD
:1012F00008F0AAC1883A910570F4853A910508F082
:10130000A4C08130910509F49FC108F450C104972D
:1013100008F09AC14CC18F3B910508F4A1C0803CF4
:10132000910508F444C1805C9109F9C0811540E23F
:10133000940758F4C11581E0D80708F085C1C03F73
:10134000D10508F434C1D0657FC1811520E392072F
:1013500008F0E9C09F70E3C0811535E5930708F0F8
:1013600044C0811544E5940708F0FDC0C11582E52D
:10137000D80708F5C11521E5D20708F0E0C08C2F89
:10138000837021E030E002C0220F331F8A95E2F71C
:101390003C68CE0174E0969587957A95E1F7837065
:1013A000382BCF70C695C69540E2C49FE00111244A
:1013B000C22BD32B49C12C2F26952695CE018370A5
:1013C0009927C115D34508F0BFC040E2249F900182
:1013D0001124C1E0D0E002C0CC0FDD1F8A95E2F7F6
:1013E0002C2B3D2BE901DC682FC181154AE59407C0
:1013F000A0F4C11589E5D80708F0C4C0C11526E5D9
:10140000D20708F4B5C0C11538E5D30708F4CFC03A
:10141000DC2FCC27C06FD06A17C181159B4508F41B
:10142000C6C0C1158CE5D80708F4BEC0CE019056E1
:101430008115904208F0BBC08D2F8F710E94A50BC3
:10144000DD27D0628F71D82BFFC0853A910509F452
:10145000B1C0863A910509F0B0C0C2E8D0E4F4C04A
:10146000883A910509F4ACC0893A910509F4ABC0FA
:101470008A3A910509F4AAC08B3A910509F4A9C0EA
:101480008C3A910509F4A8C08B3B910509F4A7C0DB
:101490008C3B910509F4A6C08D3A910509F4A5C0CD
:1014A000803B910509F4A4C08E3A910509F4A3C0CC
:1014B0008F3A910509F4A2C0813B910509F4A1C0BE
:1014C000823B910509F4A0C0833B910509F49FC0BC
:1014D000843B910509F49EC0853B910509F49DC0AC
:1014E000863B910509F49CC0873B910509F49BC09C
:1014F000883B910509F49AC0893B910509F499C08C
:101500008D3B910509F498C08E3B910509F497C075
:101510008A3B910509F496C0C0E0D4E495C00E94CE
:101520005B09EC0191C09927D3FF03C0EC01D86C93
:101530008BC0EC01D06C88C0DF70D06A85C0DC2F16
:10154000CC27C16FD06A80C040E2249F9001112453
:10155000C1E0D0E002C0CC0FDD1F8A95E2F7C22BBC
:10156000D32BDA6871C0D82FCC27C46FD06A6CC077
:101570008C2F0E94A50B8F71C82FD0E0DC2FCC27B9
:10158000D06262C08C2F8F700E94A50B94E0D6951C
:10159000C7959A95E1F7CF70D0E0DC2FCC27D06AC1
:1015A0008F70806EC82B50C0DD27D0664DC0C0E064
:1015B000D0E04AC0C1E8D0E447C0C3E8D0E444C0AA
:1015C000C2EED4E441C0C9EED4E43EC0CAEED4E4D5
:1015D0003BC0C5EBD4E438C0C6EBD4E435C0C3EBA4
:1015E000D4E432C0C4EBD4E42FC0C7EBD4E42CC0A5
:1015F000CCECD4E429C0CDECD4E426C0C3E8D5E4D7
:1016000023C0CAE8D5E420C0C2E9D5E41DC0C4E9BE
:10161000D5E41AC0C1E2D6E417C0C3E2D6E414C0D0
:10162000C4E2D6E411C0C5E2D6E40EC0C6E2D6E4F8
:101630000BC0C7E2D6E408C0CFE6D4E405C0C0E7DB
:10164000D4E402C0CAE2D6E4CE01DF91CF9108957E
:101650008238910549F1B0F48133910509F458C0FD
:1016600048F48932910509F44EC08A32910509F493
:1016700054C008958533910509F440C0893391051C
:1016800099F00895833E910529F138F4803E910543
:1016900091F0823E9105A1F00895863E9105F9F002
:1016A000873E910531F108952091320320FD3AC023
:1016B00021FD38C008958091320380FD35C032C0CD
:1016C0008091320382FF32C08091320384FD30C0AA
:1016D00083EE39C08091320382FD28C0F5CF80911E
:1016E000320383FF27C08091320384FD21C087EE3F
:1016F0002AC08091320383FD1DC0F5CF8091320353
:1017000085FD1AC01BC08091320385FD17C014C02F
:101710008091320386FD14C015C08091320386FD8E
:1017200011C00EC080EE0FC089E30DC082EE0BC069
:1017300080E009C086EE07C089E205C085E303C0EA
:101740008AE201C081E390E008959091320392FF14
:101750000DC0282F2871283019F4877F846006C0B7
:10176000282F2471243011F48B7F886093FF0DC0E3
:10177000282F2871283119F4877E846106C0282F0C
:101780002471243111F48B7E886194FD877E089545
:10179000CF93DF93813020E8920768F0FB0122812C
:1017A000222349F0EC010E94F50BCE019F770E94A5
:1017B0003D0C0E942A0C81E0DF91CF9108958CE0CE
:1017C00090E00E94312590E0A0E0B0E080932803F3
:1017D00090932903A0932A03B0932B03089560915B
:1017E00028038CE090E00C943F250E948C18809395
:1017F00035020E949F1880912803813071F048F0D3
:101800008230D9F08430F9F486EE0E94C10F88E16D
:1018100018C082EE0E943B0E16C080EE0E943B0E66
:1018200081EE0E943B0E88E10E94C10F81EE0E9472
:10183000590F80EE0E94590F06C082EE0E943B0EA7
:1018400087E50E94C10F8FE39CE90197F1F700C083
:101850000000089580912803813021F038F0823013
:1018600029F007C08CE20E94C10F03C082EE0E94E3
:10187000590F809135020C949C180F931F93CF93AE
:10188000DF938C01CCE0D0E0C8010C2E02C096950D
:1018900087950A94E2F78F700E948D070E94C10F0E
:1018A0002497CC3F8FEFD80779F7DF91CF911F9125
:1018B0000F9108950F931F93CF93DF93EC018B014A
:1018C000FB018281882319F1C23EFCE5DF07C1F0EC
:1018D00050F4C03EECE5DE0781F0C13EFCE5DF07D9
:1018E000B1F481E010C0C33E8CE5D80759F0C43E86
:1018F000ECE5DE0761F484E006C01092280305C021
:1019000082E001C083E0809328030E94EF0BB801BE
:10191000CE01DF91CF911F910F910C94C80B909342
:101920003B0280933A020895E0913A02F0913B0223
:10193000309721F00190F081E02D099480E0089526
:10194000E0913A02F0913B02309799F02091130117
:10195000222359F02091320327FF07C0DC012C918C
:1019600011962C93119725E02C930280F381E02DA2
:1019700009940895E0913A02F0913B02309739F0D2
:1019800022E0DC012C930480F581E02D0994089578
:1019900020913802309139028217930771F09093A9
:1019A000390280933802E0913A02F0913B0230977D
:1019B00021F00680F781E02D0994089520913602E8
:1019C000309137028217930771F09093370280931A
:1019D0003602E0913A02F0913B02309721F0008408
:1019E000F185E02D0994089585B7806885BF85B796
:1019F000806885BF089508950E94F40C0C94FB0C38
:101A000081E008950E94081B0E94F5030C949F1B1F
:101A1000CF92DF92EF92FF920F931F93CF93DF93BA
:101A2000CDB7DEB72B970FB6F894DEBF0FBECDBF94
:101A30000E94C7040E94000D811111C08FEF89839D
:101A40008A831B820E94111B8160782F9D838C8367
:101A500049815A816B818D810E94EC0D56C08DE3C6
:101A6000C82E82E0D82E00E010E0E02E802F0E94E9
:101A70000F05F60141916F01F42EF82631F40F5F46
:101A80001F4F0E30110589F7D9CF9091F80291FFC1
:101A900004C08B870E9415058B8520E030E04F2D18
:101AA00050E0922FBA01022E02C0759567950A94F4
:101AB000E2F760FF24C02E83EF8221E030E069016D
:101AC00002C0CC0CDD1C9A95E2F790E08C219D21A0
:101AD000892B09F420E028870E94111B8160782F50
:101AE0009A8789874E815F8168858A850E94EC0D7F
:101AF000F801E35CFD4F8081C826C08206C02F5FDD
:101B00003F4F2630310569F6BACF0E94321D109141
:101B10003C020E94940C1817A1F00E94940C809330
:101B20003C022B960FB6F894DEBF0FBECDBFDF91FF
:101B3000CF911F910F91FF90EF90DF90CF900C9479
:101B40009E072B960FB6F894DEBF0FBECDBFDF9178
:101B5000CF911F910F91FF90EF90DF90CF9008955C
:101B6000DC0111962C9111978C91682F70E041E067
:101B700050E001C0440F8A95EAF712968C911297B3
:101B800030E0882329F080915B028823E9F006C0C9
:101B9000F901E55BFD4F90819423B1F086E0829FCF
:101BA000F001839FF00D1124E60FF71FEE0FFF1FCA
:101BB000EC5EFE4F808191818D939C93F901E55BF2
:101BC000FD4F8081482B06C0F901E55BFD4F409534
:101BD0008081482340830895CF93DF93CDB7DEB74C
:101BE0002B970FB6F894DEBF0FBECDBF942F4F8357
:101BF000252F588769877A878B874A855B85452B90
:101C000021F02F3F09F59F3FF9F4DE01119686E0A0
:101C1000FD0111928A95E9F785E0FE013796019062
:101C20000D928A95E1F749815A816B817C818D8182
:101C30009E810E9480152B960FB6F894DEBF0FBED2
:101C4000CDBFDF91CF910895CE0107960E94B00DD0
:101C5000DCCFFC01808191810E944D1892959F708C
:101C6000963041F480915B0291E0892780935B027A
:101C700090935A020895882309F41AC18238C1F456
:101C80000E94940C81FD14C169E38091020190913E
:101C900003010E94641A0E94DB182FEF81EE94E08A
:101CA000215080409040E1F700C0000069E319C076
:101CB0008338F9F40E94940C80FDFAC063E58091AA
:101CC0000201909103010E94641A0E94DB182FEF19
:101CD00081EE94E0215080409040E1F700C0000088
:101CE00063E580910201909103010E946F1A0C94A8
:101CF000DB188438C1F40E94940C82FDD9C067E4DB
:101D000080910201909103010E94641A0E94DB18E5
:101D10002FEF81EE94E0215080409040E1F700C029
:101D2000000067E4DECF9CEF980F913A40F4682FF3
:101D300080910201909103010E94641AD8CF90E231
:101D4000980F983050F4877091E001C0990F8A95F0
:101D5000EAF7892F0E948F18CACF9BE5980F93301E
:101D600070F4853A29F0863A31F083E890E005C0B6
:101D700081E890E002C082E890E00C94C80C98E5FD
:101D8000980F973108F08EC0883A09F445C0893A17
:101D900009F445C08A3A09F445C08B3A09F445C0B4
:101DA0008C3A09F445C08B3B09F445C08C3B09F4DF
:101DB00045C08D3A09F445C0803B09F445C08E3AD0
:101DC00009F445C08F3A09F445C0813B09F445C088
:101DD000823B09F445C0833B09F445C0843B09F4C8
:101DE00045C0853B09F445C0863B09F445C0873BA7
:101DF00009F445C0883B09F445C0893B09F445C056
:101E00008D3B09F445C08E3B09F445C08A3B09F47B
:101E100045C080E090E044C082EE90E041C089EE91
:101E200090E03EC08AEE90E03BC085EB90E038C089
:101E300086EB90E035C083EB90E032C084EB90E01D
:101E40002FC087EB90E02CC08CEC90E029C08DEC8B
:101E500090E026C083E891E023C08AE891E020C0AA
:101E600082E991E01DC084E991E01AC081E292E02C
:101E700017C083E292E014C084E292E011C085E2D0
:101E800092E00EC086E292E00BC087E292E008C0CA
:101E90008FE690E005C080E790E002C08AE292E021
:101EA0000C94DE0C803F20F00E943A1C0C94271DFD
:101EB0000895882309F464C0823879F40E94940C50
:101EC00081FF5EC069E380910201909103010E944D
:101ED000641A0E94DB1869E310C08338B1F40E94D1
:101EE000940C80FF4DC063E5809102019091030145
:101EF0000E94641A0E94DB1863E5809102019091B0
:101F000003010E946F1A0C94DB18843879F40E9444
:101F1000940C82FF35C067E4809102019091030127
:101F20000E94641A0E94DB1867E4E7CF9CEF980FC9
:101F3000913A10F4682FE1CF90E2980F983050F466
:101F4000877091E001C0990F8A95EAF7892F0E9466
:101F50009518D9CF9BE5980F933020F480E090E05E
:101F60000C94C80C98E5980F973120F480E090E02D
:101F70000C94DE0C803F20F00E94A21C0C94271DC4
:101F80000895CF93C82F0E943B0E8C2FCF910C94B5
:101F9000590F882321F00E948F180C94DB180895A4
:101FA000882321F00E9495180C94DB1808958F92D5
:101FB0009F92AF92BF92DF92EF92FF920F931F9387
:101FC000CF93DF937C01D62FC72FFC0105810295AB
:101FD0000F70128111110E94AF180E94851888237A
:101FE00079F0112369F080E28D0F883048F082E0AB
:101FF0000E9426190E94851891E0D82ED92601C08A
:10200000D12CAC2EA2948FE0A822B12CF501EA5875
:10201000FF4F0C9417258C2F807FCF70882311F0F1
:10202000C295C07F112399F0CC2309F4C8C180E286
:102030008D0F883010F0D11104C08C2F0E948F18A2
:1020400003C08C2F0E94A2180E94DB18B8C18D2FEC
:102050000E94590FCC2309F42EC280E28D0F8830E4
:1020600010F0D11104C08C2F0E94951803C08C2F42
:102070000E94A8180E94DB181EC28C2F807FCF7090
:10208000803211F0C295C07FDD2319F0D130C9F044
:1020900021C0112371F0002341F0013031F40E947E
:1020A000C2188C2B0E94C81806C20E94C2188C2B22
:1020B0003FC1002319F0013009F4FDC10E94D1187D
:1020C00011C0112321F0023008F0F5C107C0011141
:1020D000F2C108C0112321F0011171C18C2F28C158
:1020E00001117EC18C2F2AC18C2F86958695837015
:1020F00090E0009719F0019761F0DDC1112321F004
:102100008D2F9C2F937002C080E090E00E94C80C3D
:10211000E2C1112321F08D2F9C2F937002C080E02B
:1021200090E00E94DE0CD7C11123F9F0D53F51F0A9
:10213000D63F71F0D43FA9F480912C0390912D03E8
:1021400081600BC080912C0390912D03826005C0AB
:1021500080912C0390912D03846090932D038093A4
:102160002C038D2F0E943A1C1EC0D53F51F0D63F44
:1021700071F0D43FA9F480912C0390912D038E7FB0
:102180000BC080912C0390912D038D7F05C0809111
:102190002C0390912D038B7F90932D0380932C0320
:1021A0008D2F0E94A21C0E94271D95C18C2F837029
:1021B00009F050C011118BC18D2F829586958770C3
:1021C000880F880F9D2F9F70892E912CA12CB12CE8
:1021D000082E04C0880C991CAA1CBB1C0A94D2F7B8
:1021E000D4FF14C00FE010E020E030E0B901A801F6
:1021F00004C0440F551F661F771F8A95D2F7CB0185
:10220000BA01609570958095909503C060E070E08C
:10221000CB01C695C695C370D0E0C230D10561F040
:10222000C330D10581F0682979298A299B29219712
:1022300071F00E94C5164BC1682979298A299B290A
:102240000E94D71644C10E94C516C501B4010E9460
:10225000B3163DC1112319F08C2F817001C08695F2
:10226000882309F434C18D2F829586958770880F55
:10227000880F9D2F9F70892E912CA12CB12C082E98
:1022800004C0880C991CAA1CBB1C0A94D2F7D4FF6A
:1022900014C00FE010E020E030E0B901A80104C054
:1022A000440F551F661F771F8A95D2F7CB01BA01DD
:1022B000609570958095909503C060E070E0CB01CB
:1022C000C695C695C3704C2F50E04230510569F059
:1022D0004330510589F0682979298A299B294130A1
:1022E000510571F00E948A17F2C0682979298A295C
:1022F0009B290E949C17EBC00E948A17C501B4015C
:102300000E947817E4C08D2F90E0FC01E05EF10997
:10231000E531F10508F04FC0EA57FF4F0C9417253F
:10232000DF708C2F8F71112331F00E9411178D2FC8
:102330000E94C90FC0C00E9432178D2F0E94D00F7B
:10234000BAC0112339F00111B6C08C2F8F710E94D1
:102350005717B1C0023008F0AEC0F7CF112339F0E3
:102360008C2F8F710E941117A6C01123C9F38C2FD7
:102370008F710E9432179FC0112329F08C2F8F710B
:102380000E94FC1698C00E94F71695C0112349F0D0
:10239000CF718C2F0E94111763E08C2F0E941119AE
:1023A0008AC081E00E942619023008F484C082E0CD
:1023B0000E94261980C0112331F0002389F28D2F4D
:1023C0000E943B0E78C0002391F2D93349F45FEFAD
:1023D00067EE73E0515060407040E1F700C00000CC
:1023E0008D2F0E94590F67C04C2F4F706D2FC70162
:1023F0000E94D5060E9424166EC0D23FB1F028F488
:10240000D03F49F0D13FF9F028C0D43FB9F058F09F
:10241000D53F71F022C0112309F447C090915B02AF
:1024200081E0892708C081E0182710935B023DC036
:1024300011113BC081E080935B0237C0111135C0A0
:1024400010925B0232C0112329F080915A02882336
:1024500029F329C0002311F328C080915A020023D8
:10246000C1F0882341F090915B0281E0892780933D
:102470005B0210925A028D2F112319F00E943B0E1D
:1024800014C00E94590F86E0F70111928A95E9F76E
:102490000CC0882351F0111108C090915B0281E0BB
:1024A000892780935B0210925A024C2F4F706D2F38
:1024B000C7010E944809F8E0AF16B10441F05CF092
:1024C0004AE0A41AB10852E0A516B10420F40E9413
:1024D000940C0E949E07DD20E1F00E94811880FD8F
:1024E00018C0F70112820E947B180E941117C701C1
:1024F0000E9495120E947B18DF91CF911F910F913E
:10250000FF90EF90DF90BF90AF909F908F900C94D2
:102510003217DF91CF911F910F91FF90EF90DF90D5
:10252000BF90AF909F908F9008950F931F93CF937C
:10253000DF93EC01888199812B813C81232BB9F0B9
:102540009F3F11F48F3F99F0CE010E94B00788237E
:1025500071F0688179818A810E9458188C010E94EB
:10256000AE170E94B016B801CE010E94D70FDF91BE
:10257000CF911F910F9108950E94AF180E94BF182C
:102580000E94DB180E94CD1D0E94271D80E090E074
:102590000E94C80C80E090E00C94DE0C8091020157
:1025A000909103010E947A1A0C94BC120E949F1809
:1025B0000C94CE12E92FE295EF70F0E03297EE30F6
:1025C000F105B0F4E556FF4F0C941725803F91F0CC
:1025D00018F4803E68F40EC0843F51F40BC0803E76
:1025E00048F0813F29F406C093FB882780F90895BD
:1025F00080E0089581E008950E944D180E94DA124B
:102600000895CF93DF9300D000D01F92CDB7DEB7EF
:102610000F900F900F900F900F90DF91CF91089532
:10262000CF93DF9300D000D000D0CDB7DEB7269691
:102630000FB6F894DEBF0FBECDBFDF91CF910895E6
:102640001F93CF93DF93C0915C0216E080915D02EF
:10265000C81799F0D0E01C9FF0011D9FF00D1124C8
:10266000E25AFD4F4081518162817381848195815D
:102670000E9410132196C770E9CFDF91CF911F916F
:10268000089540918E0250918F0260919002709156
:10269000910280919202909193020C941013809178
:1026A000930282958F7009F054C080919002882324
:1026B00009F44FC080915C02A0915D0260918E028E
:1026C00070918F024091910250919202B6E08A1768
:1026D00009F43FC090E041155105C1F17F3F11F46D
:1026E0006F3FA1F1B89FF001B99FF00D1124E25A9C
:1026F000FD4F218172132AC02081621327C02281DD
:10270000211124C0238134812417350710F421506E
:102710003109241B350B243B3105C0F42091930271
:102720002F7020612093930226E0289FF001299FBB
:10273000F00D1124ED59FD4F80818F7080618083F1
:102740008EE892E00E9495120C94201301968770F7
:10275000BECF0895CF92DF92EF92FF920F931F9317
:10276000CF93DF93CDB7DEB762970FB6F894DEBF95
:102770000FBECDBF8C0185E0F801DE011D960190F2
:102780000D928A95E1F7D8014C9111965C911197C1
:1027900012966C9112971396CD90DC90149730910D
:1027A0008E0270918F028091910290919202009717
:1027B00009F46BC17F3F19F43F3F09F466C1E09013
:1027C0009002EE2009F4C0C020919302C816D906E9
:1027D00028F0F601E81BF90BCF0104C08095909515
:1027E0008C0D9D1DFF24F394843B910578F0F12C12
:1027F000207F09F0C6C07C2DD98AC88A89890E94A9
:1028000001138EE892E00E949512B1C0822F807F62
:1028100009F046C0751314C0341312C0611110C002
:102820002F702061209393020E9441138EE892E062
:102830000E94951280919302D80115968C932EC018
:10284000CD2819F15F3F11F44F3FF9F0F62E6111D9
:102850001CC080915C0220915D0236E0821709F471
:102860005AC090E0389FF001399FF00D1124E25AD0
:10287000FD4F7181571306C07081471303C07281E9
:10288000711103C001968770E9CFF62E662309F413
:1028900027C180919302816080939302F12C20C123
:1028A000751308C0341306C0611104C080919302EF
:1028B000D801C3C04D875E878D859E856A8B0E9437
:1028C000FC126A898823E1F16623D1F120919302F9
:1028D000822F82958F7090E0029774F080918E0223
:1028E00090918F0298878F831986DB86CA862C8702
:1028F000CE0107960E94951286E0F801AEE8B2E09C
:1029000001900D928A95E1F70E944F130E944113A6
:10291000FF24F394E5C04D875E878D859E850E94D8
:102920004D18292F22952F7030E0223031050CF000
:10293000CBC09F7009F0C5C0805E883008F4D0C05D
:10294000C8010E949512E4CFC816D90608F453C0F6
:10295000F601E81BF90BCF01843B910508F450C048
:10296000F12C7C2DD98AC88A89890E940113EEE84E
:10297000F2E086E0DF011D928A95E9F70E9441139B
:10298000AFC0751314C0341312C0611110C0809110
:102990009302F8018583C8010E94951286E0EEE853
:1029A000F2E0DF011D928A95E9F7FE2C99C04D8770
:1029B0005E878D859E856A8B0E94FC126A898823BA
:1029C00009F4BECF662309F4BBCF20919302822F76
:1029D00082958F7090E002970CF48ECF80918E02DA
:1029E00090918F029A8389831B82DD82CC822E8311
:1029F000CE0101967FCF809590958C0D9D1DACCF1B
:102A0000F62E662309F49CCF75132EC034132CC008
:102A10002091930220FD1FC0822F82958F70D9F0E4
:102A2000D80115962C9315978F3049F08F5F982F0A
:102A30009295907F822F8F70892B15968C93C80169
:102A40000E94951286E0F801AEE8B2E001900D9286
:102A50008A95E1F793CF86E0F801AEE8B2E0019005
:102A60000D928A95E1F73CC04D875E878D859E85E6
:102A70000E94FC12811140CF80919302816080936B
:102A80009302C8010E9495122BC0662309F458CF07
:102A90004D875E878D859E850E94FC12F82E8823C7
:102AA00009F44ECF86E0F801AEE8B2E001900D9255
:102AB0008A95E1F78EE892E00E94290E0E944F135A
:102AC0005DCF811139CF0CC0243031050CF038CFE7
:102AD0009F7009F431CFF8019581907F09F02CCFD8
:102AE0008F2D62960FB6F894DEBF0FBECDBFDF917B
:102AF000CF911F910F91FF90EF90DF90CF900895AD
:102B00001F93CF93DF93CDB7DEB72C970FB6F89412
:102B1000DEBF0FBECDBF4F83588769877A878B870B
:102B20009C87CE0107960E94AA13882369F08F81A3
:102B300098852A853B85232BF1F19F3F09F063C0DF
:102B40008F3F09F060C037C086E0FE013796DE0196
:102B5000119601900D928A95E1F76F817885EA854B
:102B6000FB85309741F17F3F11F46F3F21F12091B8
:102B70005D0230E0C90101968770992740915C029F
:102B800050E08417950709F447C069837A83FD8371
:102B9000EC8396E0929FD001939FB00D1124A25A2E
:102BA000BD4FFE01319601900D929A95E1F7809309
:102BB0005D020E94201316E080915C0290915D02FC
:102BC0008917C1F1189FC0011124825A9D4F0E949C
:102BD000AA13882379F1E0915C021E9FF001112471
:102BE000E25AFD4F408151816281738184819581D8
:102BF0000E94101380915C0290E0019687709927E3
:102C000080935C02D9CF4F81588569857A858B8501
:102C10009C850E941013CFCF0E94D61210925D02A5
:102C200010925C02EEE8F2E086E0DF011D928A95E8
:102C3000E9F7C1CF2C960FB6F894DEBF0FBECDBF1B
:102C4000DF91CF911F910895EF92FF920F931F9301
:102C5000CF93DF938C01892B09F46CC0F12CEE2407
:102C6000E394E8012196F8018491843740F484309C
:102C700008F051C0813081F0823019F15BC0853796
:102C800009F444C0A8F19CE7980F903708F052C0AF
:102C90008F770E94590F41C00E5F1F4FFE01C491F4
:102CA00080E28C0F883048F4C7708E2D01C0880FE9
:102CB000CA95EAF70E94B21814C08C2F0E943B0EEE
:102CC0002DC00E5F1F4FFE01C49180E28C0F883033
:102CD00058F4C7708E2D01C0880FCA95EAF70E947C
:102CE000B8180E94DB181AC08C2F0E94590F16C00A
:102CF0000E5F1F4FFE01C491CC2381F08FE99FE04E
:102D00000197F1F700C00000C150F6CF0E5F1F4FD2
:102D1000FE01F49003C00E943B0E8E018F2D88238C
:102D200009F49FCFEFE9FFE03197F1F700C0000011
:102D30008150F5CFDF91CF911F910F91FF90EF90D0
:102D4000089508950C94A1160E94A2166093CF02D4
:102D50007093D0028093D1029093D2020C94BC1253
:102D600008950C94A4160F931F930091CF02109115
:102D7000D0022091D1023091D202602B712B822B94
:102D8000932B1F910F910C94A4160F931F930091F6
:102D9000CF021091D0022091D1023091D202602353
:102DA0007123822393231F910F910C94A4160F93E8
:102DB0001F930091CF021091D0022091D102309147
:102DC000D20260277127822793271F910F910C94BD
:102DD000A4160C94EF060E94E9166093CB02709340
:102DE000CC028093CD029093CE020C94BC1260E092
:102DF00070E0CB010C94EB160F931F9341E050E071
:102E000060E070E08A019B0104C0000F111F221FC7
:102E1000331F8A95D2F7C901B8011F910F910C9405
:102E2000EB160F931F9341E050E060E070E004C0A8
:102E3000440F551F661F771F8A95D2F78091CB02EA
:102E40009091CC02A091CD02B091CE028A019B015B
:102E5000082B192B2A2B3B2BC901B8011F910F916D
:102E60000C94EB160F931F9341E050E060E070E08C
:102E700004C0440F551F661F771F8A95D2F74095EF
:102E80005095609570958091CB029091CC02A09165
:102E9000CD02B091CE028A019B01082319232A2377
:102EA0003B23C901B8011F910F910C94EB160F93AE
:102EB0001F9341E050E060E070E004C0440F551FF4
:102EC000661F771F8A95D2F78091CB029091CC0232
:102ED000A091CD02B091CE028A019B01082719274B
:102EE0002A273B27C901B8011F910F910C94EB16BB
:102EF0000F931F930091CB021091CC022091CD0231
:102F00003091CE02602B712B822B932B1F910F914E
:102F10000C94EB160F931F930091CB021091CC02EF
:102F20002091CD023091CE0260237123822393231E
:102F30001F910F910C94EB160F931F930091CB02EE
:102F40001091CC022091CD023091CE0260277127E2
:102F5000822793271F910F910C94EB160895292F28
:102F6000220F920F990F890FA82FA695A695A695C7
:102F7000877051E001C0550F8A95EAF785E0A89F58
:102F8000D001112420E030E070E0F901EA0FFB1FCE
:102F9000EC56FD4F4081CB01022E02C096958795DD
:102FA0000A94E2F7817099278195842785238427E5
:102FB00080832F5F3F4F2530310539F70895292F42
:102FC000220F920F990F890F682F66956695669567
:102FD000982F977085E0689FB001112440E050E081
:102FE00080E0FA01E60FF71FEC56FD4F208130E03C
:102FF000092E02C0369527950A94E2F721703327EF
:10300000042E01C0220F0A94EAF7822B4F5F5F4F14
:103010004530510531F70895BF92CF92DF92EF927C
:10302000FF920F931F93CF93DF938C01C090CF0239
:10303000D090D002E090D102F090D2028091CB02E9
:103040009091CC02A091CD02B091CE02C82AD92A8B
:10305000EA2AFB2ACFE1D0E0D701C6010C2E04C03A
:10306000B695A795979587950A94D2F780FF07C0E4
:10307000BC2EB8018C2F0E946309019719F4219787
:1030800058F7B12C8B2DDF91CF911F910F91FF90AD
:10309000EF90DF90CF90BF900895CF93DF93EC0136
:1030A0000E940C18BE010E946309DF91CF91089520
:1030B0001F93CF93DF93EB0190915902992321F055
:1030C000CB010E944D1813C0882349F0CB010E9408
:1030D0000C18182F682FCE010E94AF1704C0CB0127
:1030E0000E94DF17182FBE01812F0E946309DF9114
:1030F000CF911F9108958091D302859585958595EF
:1031000008958091D302877008959091D3029770AB
:1031100081E009F480E008958091F702089590918C
:10312000F702892B8093F702089580959091F7021A
:1031300089238093F70208958093F70208951092EF
:10314000F70208959091F602892B8093F602089574
:1031500080959091F60289238093F602089510924B
:10316000F60208959091F502892B8093F502089557
:1031700080959091F50289238093F502089510922D
:10318000F50208958091D402089508950C94C5180D
:103190009091D402981721F08093D4020C94C61811
:1031A00008958091D402882329F01092D40280E0FF
:1031B0000C94C6180895E0910201F09103018091EA
:1031C000F7028083E0910201F091030190818091E8
:1031D000F602892B8083E0910201F0910301908136
:1031E0008091F502892B80838091D402882381F01D
:1031F000E0910201F09103019081892B80838091FD
:103200000201909103010E94FF1981110E94D118BF
:1032100080910201909103010C94A00C08950C94EC
:103220000E1998E0899F90011124262B2093D30238
:103230000E9411178091D3028595859585950C94F0
:103240000F191092D30280E00C940F192091D30231
:10325000809582238093D302982F977079F430E081
:10326000482F082E000C550B2417350739F085958B
:10327000859585950E9432170C9421190895CF9257
:10328000DF92EF92FF926C01EE24FF24C114D1046F
:10329000E104F10421F0C701B60120E101C020E002
:1032A000C72ED82EE92EFF24C114D104E104F10465
:1032B00019F0285FC701B6016B017C0154E0F69458
:1032C000E794D794C7945A95D1F7C114D104E10477
:1032D000F10419F02C5FC701B6016B017C0142E0DB
:1032E000F694E794D794C7944A95D1F7C114D104C2
:1032F000E104F10419F02E5FC701B601DC01CB0136
:10330000B695A79597958795892B8A2B8B2B09F0D6
:103310002F5F822FFF90EF90DF90CF90089580E095
:1033200090E00E94392521E08D3E9E4F09F020E07B
:10333000822F089582E090E00C94312583E090E0A4
:103340000C94312584E090E00C943125682F84E0C2
:1033500090E00C943F25AB01BC018FE090E00C9411
:103360005125AB01BC0183E190E00C94512560E054
:1033700070E0CB010C94B11960E070E0CB010E94C9
:10338000AB190C94B7196DEE7EEF80E090E00E94CF
:103390005D2560E082E090E00E943F2560E083E0F0
:1033A00090E00E943F251092CF021092D00210921E
:1033B000D1021092D20260E084E090E00E943F25AA
:1033C00060E085E090E00E943F2560E086E090E0CC
:1033D0000E943F256FEF87E090E00E943F2540E08C
:1033E00050E0BA0188E090E00E94512560E08DE055
:1033F00090E00E943F250C94BC190C94C319FC0169
:10340000329680911301882331F08091320387FF37
:1034100002C09EE101C096E080E0915028F0219129
:103420002223D9F38F5FF9CF08959C01FC013296D6
:103430009FEF80E04191461789F09F3F19F44111B9
:1034400001C0982F8F5F8630A9F79F3F39F0F901AF
:10345000E90FF11D97FDFA95628308950895FC0127
:10346000329608962081261301C010823196E81703
:10347000F907C1F70895262F2695269526952E3112
:1034800068F4FC01E20FF11D677021E030E001C03B
:10349000220F6A95EAF78281282B22830895262F2E
:1034A0002695269526952E3170F4FC01E20FF11D2C
:1034B000677021E030E001C0220F6A95EAF720959D
:1034C000828128232283089520911301222329F049
:1034D0002091320327FD0C943B1A0C94151A20916D
:1034E0001301222329F02091320327FD0C944F1A57
:1034F0000C942F1A20911301FC013296222331F0F3
:103500008091320387FF02C08EE101C086E0DF01B7
:103510001D928A95E9F7089508950C948C1A0E94DB
:103520008D1A80913803843049F11092F90220E419
:1035300088E190E00FB6F894A895809360000FBEE4
:103540002093600080E00E949E070E948D1A83B73E
:10355000817F846083BF83B7816083BF78948895BF
:1035600083B78E7F83BF0FB6F894A89580916000D3
:10357000886180936000109260000FBE08950895E6
:10358000CF930E941E040E94C7040E94BF1AC0E08D
:103590008C2F0E940F05811104C0CF5FCE30C1F780
:1035A00001C081E0CF91089508950C94D41A0E942F
:1035B000D6120E94940C0E949E070C94D51A1F925A
:1035C0000F920FB60F9211248F939F93AF93BF93D7
:1035D0008091F902811113C080912E0390912F03E5
:1035E000A0913003B09131034196A11DB11D80938C
:1035F0002E0390932F03A0933003B0933103BF9118
:10360000AF919F918F910F900FBE0F901F901895C3
:1036100082E084BD93E095BD9AEF97BD80936E00E4
:1036200008952FB7F89480912E0390912F03A091C5
:103630003003B09131032FBF0895CF92DF92EF9204
:10364000FF920F931F932FB7F89440912E03509140
:103650002F0360913003709131032FBF6A017B010A
:10366000EE24FF248C0120E030E0C016D106E206F3
:10367000F30610F4415051099A01281B390BC90176
:103680001F910F91FF90EF90DF90CF900895789465
:103690001F920F920FB60F9211248F939F93AF93A7
:1036A000BF9380912E0390912F03A0913003B0918E
:1036B00031030196A11DB11D80932E0390932F031A
:1036C000A0933003B0933103BF91AF919F918F913D
:1036D0000F900FBE0F901F901895F89481E0809383
:1036E000E00080E28093D800E9ECF0E010828FE106
:1036F0009EE40197F1F700C000001DBA1092680027
:103700001CBC10BE1FBA10927A0010926E0010926C
:103710006F0010927100109272001082ECEBF0E0DA
:10372000108214B817B81AB81DB810BA108215B89C
:1037300018B81BB81EB811BA0C94003F08950E9427
:103740008F19811102C00E94FD190E949A1980935D
:10375000F8020E94A21990E0909333038093320301
:103760000E949E19682F70E080E090E00C94B116E2
:103770008091FD0280FF0BC06091070185E0689F8A
:10378000B001112475956795759567952BC081FFDC
:1037900009C06091070185E0689FB001112475950B
:1037A000679520C082FF07C06091070185E0689F90
:1037B000B001112417C09091FE029923D1F06091BD
:1037C0000601961788F72091070185E0289F900150
:1037D0001124929FA001939F500D112470E0CA0103
:1037E0000E9403256038710540F46115710539F0B8
:1037F00002C065E070E0862F08958FE7089581E0AC
:1038000008958091FD0280FF08C06091050170E07D
:10381000759567957595679521C081FF06C0609184
:10382000050170E07595679519C082FF04C060912D
:10383000050170E010C09091FE029923C1F06091E3
:1038400004019617A0F780910501899FC0011124FA
:1038500070E00E9403256038710528F46115710538
:1038600021F0862F08958FE7089581E0089561E0A3
:1038700070E0F4CF803F21F40E94B81B819504C012
:10388000813F29F40E94B81B809302030895823F70
:1038900021F40E94B81B819504C0833F29F40E9443
:1038A000B81B809301030895893F19F40E94011CFD
:1038B00005C08A3F31F40E94011C81958093030367
:1038C00008958B3F21F40E94011C819504C08C3F18
:1038D00029F40E94011C809304030895843F21F47D
:1038E00080910003816017C0853F21F4809100031F
:1038F000826011C0863F21F48091000384600BC078
:10390000873F21F480910003886005C0883F31F42F
:103910008091000380618093000308958D3F21F41E
:103920008091FD0281600BC08E3F21F48091FD02E9
:10393000826005C08F3F29F48091FD0284608093EE
:10394000FD020895803F39F48091020387FF6CC027
:103950001092020369C0813F29F480910203181676
:10396000BCF362C090910103823F29F497FF5CC0D1
:103970001092010359C0833F19F41916CCF354C0B7
:10398000893F41F48091030318160CF04DC010924A
:1039900003034AC08A3F29F48091030387FF44C090
:1039A000F6CF8B3F39F48091040387FF3DC010921E
:1039B00004033AC08C3F29F4809104031816BCF329
:1039C00033C0843F21F4809100038E7F17C0853F70
:1039D00021F4809100038D7F11C0863F21F48091F6
:1039E00000038B7F0BC0873F21F480910003877F0A
:1039F00005C0883F31F4809100038F7E80930003DF
:103A000013C08D3F21F48091FD028E7F0BC08E3F4D
:103A100021F48091FD028D7F05C08F3F29F48091B4
:103A2000FD028B7F8093FD028091010381110EC006
:103A30008091020381110AC080910303811106C0A5
:103A400080910403811102C01092FE0208958FEF4D
:103A500092E00E94BA0C0E94111B9093FB0280938B
:103A6000FA0208951F93CF93DF938091FA02909109
:103A7000FB020E941D1BAC019091FE02992321F0D4
:103A80002091080130E006C02091FC028AE0289FC6
:103A9000900111244217530708F47BC08091010361
:103AA000C0910203D091030310910403811107C058
:103AB000C1116BC0D11169C0111167C06AC09F3FAD
:103AC00019F09F5F9093FE02181624F40E94B81B11
:103AD000809301038091010387FF05C00E94B81BFA
:103AE0008195809301031C1624F40E94B81B8093D7
:103AF00002038091020387FF05C00E94B81B8195D5
:103B000080930203309101033323E1F020910203FB
:103B10002223C1F045EB3403C0011124892F990FF2
:103B2000990B009709F481E08093010335EB23039F
:103B3000C0011124892F990F990B009709F481E096
:103B4000809302031D1624F40E94011C809303033A
:103B50008091030387FF05C00E94011C819580931B
:103B60000303111624F40E94011C80930403809126
:103B7000040387FF05C00E94011C81958093040304
:103B8000DF91CF911F910C94271D9F3F09F099CF92
:103B9000A1CFDF91CF911F910895EFEFF2E086E082
:103BA000DF011D928A95E9F71092FE021092FD0244
:103BB00008958091250308950F931F93CF93DF936A
:103BC00000D01F92CDB7DEB78C010E944A20823010
:103BD00011F0843021F584E089831B830A8382E01D
:103BE0008093E9008FEF9091E800815095FD06C029
:103BF00095ED9A95F1F700008111F5CF8091E800DD
:103C000085FF0DC040E050E063E070E0CE0101961A
:103C10000E9467208091E8008E778093E8000F90E3
:103C20000F900F90DF91CF911F910F910895CF9337
:103C3000DF9300D01F92CDB7DEB720913803243038
:103C400031F523E02983805891099B838A8382E0A0
:103C50008093E9008FEF9091E800815095FD06C0B8
:103C600095ED9A95F1F700008111F5CF8091E8006C
:103C700085FF0DC040E050E063E070E0CE010196AA
:103C80000E9467208091E8008E778093E8000F9073
:103C90000F900F90DF91CF910895CF93DF93EC01B8
:103CA0000E944A20823011F08430F9F482E080933F
:103CB000E9009FEF8091E800915085FD06C085EDF9
:103CC0008A95F1F700009111F5CF8091E80085FF0A
:103CD0000CC040E050E066E070E0CE010E9467203A
:103CE0008091E8008E778093E800DF91CF9108956E
:103CF000CF93DF93EC010E944A20823011F0843090
:103D0000D9F580911301882339F08091320387FF20
:103D100003C060E282E002C068E081E08093E900D5
:103D20008FEF9091E800815095FD06C095ED9A9532
:103D3000F1F700008111F5CF8091E80085FF1CC0EC
:103D400080911301811105C040E050E068E070E00F
:103D500003C070E040E050E0CE010E9467208091F7
:103D6000E8008E778093E80080E2FE01A5E0B3E0F2
:103D700001900D928A95E1F7DF91CF91089580919E
:103D80003703811109C00E94FC210E9459228091B1
:103D9000E20084608093E200089510923703089552
:103DA000089508950C94D71A42E061EC81E00E94D6
:103DB000762142E261EC82E00C94762180913A0314
:103DC000833009F460C030F4813071F0823009F43E
:103DD00099C008958A3009F485C08B3009F46BC00E
:103DE000893009F0A7C020C080913903813A09F0D9
:103DF000A1C08091E800877F8093E80080913D0317
:103E000090913E03892B21F460E285E093E003C0AA
:103E100060E080E090E070E00E94B2208091E800D5
:103E20008B778093E800089580913903813209F0FF
:103E300081C080913D0390913E03029708F07AC0C3
:103E40008091E800877F8093E8008091E80082FD00
:103E500005C0809138038111F8CF6CC02091F30028
:103E60008091F20090E0922B029729F48091F1006A
:103E70008B7F813021F48091F10080932503809124
:103E8000E8008B7753C080913903813A09F052C022
:103E900080913D0390913E03892B09F04BC08091A6
:103EA000E800877F8093E8008091E80080FFFCCFE6
:103EB0008091130136C0809139038132D9F5809108
:103EC0003D0390913E03892BA9F58091E800877FFF
:103ED0008093E8000E94AB2180913B038093130103
:103EE0000C94D61280913903813221F58091E8003B
:103EF000877F8093E8000E94AB2180913C038093F0
:103F00002603089580913903813AA1F48091E80055
:103F1000877F8093E8008091E80080FFFCCF80914C
:103F200026038093F1008091E8008E778093E8006B
:103F30000C94AB21089584B7877F84BF0FB6F894A3
:103F4000A895809160008861809360001092600065
:103F50000FBE80E880936100109261000E94FC0C0B
:103F60000E94FC210E9459228091E200846080938B
:103F7000E20078940E94E8240E94020D89E091E01A
:103F80000E948F0C80913803853069F40E948F1A4B
:103F9000809136038823B1F30E94C01A882391F3DD
:103FA0000E945120EFCF0E94080DECCF0C94D81F37
:103FB000292F332723303105C9F064F4213031052E
:103FC00081F02230310509F04CC08BE390E02FE7FF
:103FD00035E04BC02132310521F12232310589F122
:103FE00040C082E190E02AEB35E03FC09927813064
:103FF000910571F02CF4892BA1F5EBE7F5E00DC0EC
:104000008230910541F0039761F5E5E4F5E005C0E4
:10401000E3E6F5E002C0EBE4F5E0849190E09F0177
:1040200024C06115710541F061307105D1F489E05A
:1040300090E02AEA35E019C089E090E021E935E016
:1040400014C06115710541F06130710551F480ECC7
:1040500090E02CEC35E009C080E490E02CE836E0FC
:1040600004C080E090E020E030E0FA01318320835A
:1040700008950895CF93C82F0E943920C093270335
:10408000CF91089580913803843011F081E0089534
:1040900082E0089580912703811102C00C94422090
:1040A000089580E189BD82E189BD09B400FEFDCF9C
:1040B0008091D8008F7D8093D8008091E00082604D
:1040C0008093E0008091E00081FDFCCF0895CF92C5
:1040D000DF92EF92FF920F931F93CF93DF93EC0148
:1040E0008B016A010E94CA21811133C0C114D1041D
:1040F00039F0F60180819181081B190BC80FD91F77
:10410000E12CF12C0115110519F18091E80085FDD4
:1041100016C08091E8008E778093E800C114D10426
:1041200049F0F60180819181E80EF91EF182E0826A
:1041300085E00FC00E94CA21882321F30AC089911B
:104140008093F10001501109FFEFEF1AFF0ADACF57
:1041500080E0DF91CF911F910F91FF90EF90DF9062
:10416000CF90089520913F033091400326173707E1
:1041700048F06115710539F42091E8002E772093FD
:10418000E80001C0B90140E061157105A9F1209175
:104190003803222309F443C0253009F442C020919A
:1041A000E80023FD40C02091E80022FD32C02091AC
:1041B000E80020FFE9CF4091F3002091F20030E0C9
:1041C000342BFC01CF016115710559F02830310500
:1041D00040F481918093F100615071092F5F3F4F4E
:1041E000F1CF41E02830310509F040E02091E800AE
:1041F0002E772093E800C8CF4111C9CF0AC0809123
:104200003803882361F0853061F08091E80083FDF8
:104210000AC08091E80082FFF2CF80E0089582E03A
:10422000089583E0089581E0089520913F0330913F
:1042300040032617370748F06115710539F42091BE
:10424000E8002E772093E80001C0B901FC0120E0CE
:104250006115710591F180913803882309F440C0FC
:10426000853009F43FC08091E80083FD3DC0809116
:10427000E80082FD2FC08091E80080FFE9CF209107
:10428000F3008091F20090E0922B6115710559F0D6
:104290008830910540F424912093F10031966150CB
:1042A00071090196F2CF21E0089709F020E0809192
:1042B000E8008E778093E800CBCF2111CCCF0AC0E5
:1042C00080913803882361F0853061F08091E800A7
:1042D00083FD0AC08091E80082FFF2CF80E008955C
:1042E00082E0089583E0089581E00895982F973043
:1042F00058F59093E900981739F07091EC002091EF
:10430000ED005091F00003C0242F762F50E021FFE4
:1043100019C03091EB003E7F3093EB003091ED00FF
:104320003D7F3093ED003091EB0031603093EB0036
:104330007093EC002093ED005093F0002091EE007C
:1043400027FF07C09F5FD3CF8F708093E90081E084
:10435000089580E008958091390387FF11C080910E
:10436000E80082FD05C0809138038111F8CF11C0AB
:104370008091E8008B770BC080913803882349F047
:104380008091E80080FFF8CF8091E8008E778093DD
:10439000E80008952091E4003091E50095E6409111
:1043A000EC00842F817040FF22C08091E80080FDE6
:1043B0001CC080913803882391F0853091F0809162
:1043C000EB0085FD10C04091E4005091E5004217DC
:1043D000530729F39A01915011F784E0089582E080
:1043E000089583E0089581E0089580E00895409164
:1043F000E80042FFDECF08950E946A220E947222E6
:10440000E0EEF0E0808181608083E8EDF0E0808183
:104410008F77808319BCA7EDB0E08C918E7F8C9351
:1044200080818F7E80831092370308950F931F93AE
:10443000CF93DF930E946A220E947222C8EDD0E0DF
:1044400088818F77888388818068888388818F7D41
:10445000888319BC109238031092340310923603EB
:104460001092350300EE10E0F80180818B7F80838D
:1044700088818160888342E060E080E00E9476214C
:10448000E1EEF0E080818E7F8083E2EEF0E08081DB
:1044900081608083808188608083F80180818E7F45
:1044A0008083888180618883DF91CF911F910F91F4
:1044B0000895E8EDF0E080818F7E8083E7EDF0E005
:1044C00080818160808384E082BF81E080933703B4
:1044D0000C941622E8EDF0E080818E7F80831092AC
:1044E000E20008951092DA001092E10008951F9200
:1044F0000F920FB60F9211242F933F934F935F9318
:104500006F937F938F939F93AF93BF93EF93FF939B
:104510008091E10082FF0BC08091E20082FF07C022
:104520008091E1008B7F8093E1000E94E7248091DD
:10453000DA0080FF1FC08091D80080FF1BC08091EF
:10454000DA008E7F8093DA008091D90080FF0DC061
:1045500080E189BD82E189BD09B400FEFDCF81E023
:10456000809338030E94BF1E05C019BC1092380307
:104570000E94CD1E8091E10080FF19C08091E20071
:1045800080FF15C08091E2008E7F8093E2008091D1
:10459000E20080618093E2008091D8008062809385
:1045A000D80019BC85E0809338030E94D11E809109
:1045B000E10084FF30C08091E20084FF2CC080E1E4
:1045C00089BD82E189BD09B400FEFDCF8091D8008C
:1045D0008F7D8093D8008091E1008F7E8093E100F1
:1045E0008091E2008F7E8093E2008091E200816002
:1045F0008093E20080913403882311F084E007C0A7
:104600008091E30087FD02C081E001C083E08093D8
:1046100038030E94D21E8091E10083FF29C080915F
:10462000E20083FF25C08091E100877F8093E10055
:1046300082E080933803109234038091E1008E7FF2
:104640008093E1008091E2008E7F8093E200809170
:10465000E20080618093E20042E060E080E00E943E
:1046600076218091F00088608093F0000E94D01E37
:10467000FF91EF91BF91AF919F918F917F916F913A
:104680005F914F913F912F910F900FBE0F901F9010
:1046900018951F920F920FB60F9211242F933F93EC
:1046A0004F935F936F937F938F939F93AF93BF933A
:1046B000CF93DF93EF93FF93C091E900CF70809188
:1046C000EC00D82FD17080FDD0E81092E9008091E5
:1046D000F000877F8093F00078940E948D231092E1
:1046E000E9008091F00088608093F000CD2BCF70BE
:1046F000C093E900FF91EF91DF91CF91BF91AF910E
:104700009F918F917F916F915F914F913F912F91E9
:104710000F900FBE0F901F9018951F93CF93DF93AC
:10472000CDB7DEB7AA970FB6F894DEBF0FBECDBFE8
:10473000E9E3F3E088E08E0F9091F10091938E13FE
:10474000FBCF0E94DE1E8091E80083FF28C180918C
:10475000390390913A03492F50E04A30510508F04F
:104760001EC1FA01E755FF4F0C941725803821F040
:10477000823809F014C108C0809135039091360346
:10478000992389F082600FC080913D038F7087303C
:1047900008F005C18093E9008091EB0085FB882734
:1047A00080F91092E9009091E800977F9093E800DB
:1047B0008093F1001092F100D0C0282F2D7F09F0D6
:1047C000EEC0882319F0823061F0E9C080913B038C
:1047D000813009F0E4C0933009F080E08093360323
:1047E0002EC080913B0381112AC080913D038F70C0
:1047F0002FEF280F263008F0D2C08093E9002091D7
:10480000EB0020FF1CC0933021F48091EB0080620C
:1048100014C09091EB0090619093EB0021E030E0A8
:10482000A90102C0440F551F8A95E2F74093EA00A0
:104830001092EA008091EB0088608093EB00109268
:10484000E9008091E800877F8093E8000E94AB2117
:10485000A6C08111A4C010913B031F778091E30093
:104860008078812B8093E3008091E800877F80939C
:10487000E8000E94AB218091E80080FFFCCF80918E
:10488000E30080688093E300111102C082E001C060
:1048900083E08093380383C08058823008F07FC063
:1048A00080913B0390913C038C3D53E0950779F553
:1048B00083E08A838AE289834FB7F894DE011396F6
:1048C00020E03EE051E2E32FF0E050935700E49106
:1048D00020FF03C0E295EF703F5FEF708E2F90E0F6
:1048E000EA3010F0C79601C0C0968D939D932F5F5C
:1048F000243149F74FBF8091E800877F8093E8001B
:104900006AE270E0CE0101960E94B22015C060916B
:104910003D0370913E03AE014F5F5F4F0E94D61F73
:10492000BC01892BE1F19091E800977F9093E8001A
:1049300089819A810E9415218091E8008B7780936C
:10494000E8002DC0803859F58091E800877F80937A
:10495000E800809134038093F1008091E8008E7725
:1049600073CF81111CC090913B039230C0F48091B1
:10497000E800877F8093E800909334030E94AB2186
:1049800080913403811106C08091E30087FD02C04D
:1049900081E001C084E0809338030E94D41E80919E
:1049A000E80083FF0AC08091E800877F8093E800D9
:1049B0008091EB0080628093EB00AA960FB6F8948A
:1049C000DEBF0FBECDBFDF91CF911F910895089537
:1049D000CF93809138038823A1F0C091E900CF7074
:1049E0009091EC00892F817090FD80E8C82B109287
:1049F000E9008091E80083FD0E948D23CF70C09371
:104A0000E900CF91089597FB072E16F4009407D084
:104A100077FD09D00E941D2507FC05D03EF4909536
:104A200081959F4F0895709561957F4F0895EE0F82
:104A3000FF1F0590F491E02D0994AA1BBB1B51E1C7
:104A400007C0AA1FBB1FA617B70710F0A61BB70BFE
:104A5000881F991F5A95A9F780959095BC01CD01A3
:104A60000895F999FECF92BD81BDF89A992780B536
:104A70000895A8E1B0E042E050E00C946525262FAF
:104A8000F999FECF92BD81BDF89A019700B4021644
:104A900039F01FBA20BD0FB6F894FA9AF99A0FBEF2
:104AA00008950396272F0E9440250E943F25252F19
:104AB0000E944025242F0C9440250196272F0E9408
:104AC00040250C943F25DC01CB01FC01F999FECF78
:104AD00006C0F2BDE1BDF89A319600B40D92415086
:0A4AE0005040B8F70895F894FFCF96
:104AEA002000D50250014B090AD91D781E4D1E1708
:104AFA001EDC1D01000D010D020D030D040D050D37
:104B0A00000C010C020C030C040C050C000B010B2D
:104B1A00020B030B040B050B000A010A020A030A23
:104B2A00040A050A00090109020903090409050919
:104B3A00000801080208030804080508000701071D
:104B4A000207030704070507000601060206030613
:104B5A000406050600050105020503050405050509
:104B6A00000401040204030404040504000301030D
:104B7A000203030304030503000201020202030203
:104B8A0004020502000101010201030104010501F9
:0C4B9A0000000100020003000400050000
:00000001FF
